:020000040000FA
:100000000C9462000C948A000C948A000C948A0070
:100010000C948A000C948A000C948A000C948A0038
:100020000C948A000C948A000C948A000C948A0028
:100030000C948A000C948A000C948A000C948A0018
:100040000C94E5040C948A000C94B3040C948D0475
:100050000C948A000C948A000C948A000C948A00F8
:100060000C942F050C948A00000000002400270047
:100070002A0000000000250028002B0000000000DE
:1000800023002600290004040404040404040202DA
:100090000202020203030303030301020408102007
:1000A0004080010204081020010204081020000012
:1000B0000008000201000003040700000000000027
:1000C00000004A0611241FBECFEFD8E0DEBFCDBF2F
:1000D00011E0A0E0B1E0ECEFFEE002C005900D926F
:1000E000AC32B107D9F722E0ACE2B1E001C01D9219
:1000F000AB35B207E1F710E0C2E6D0E004C02197CB
:10010000FE010E947607C136D107C9F70E94940606
:100110000C947C070C940000AF92BF92CF92DF92B8
:10012000EF92FF920F931F93CF93DF936C017B01AC
:100130008B01040F151FEB015E01AE18BF08C0173D
:10014000D10759F06991D601ED91FC910190F081B0
:10015000E02DC6010995892B79F7C501DF91CF9173
:100160001F910F91FF90EF90DF90CF90BF90AF90D5
:100170000895FC01538D448D252F30E0842F90E0AD
:10018000821B930B541710F0CF9608950197089592
:10019000FC01918D828D981761F0A28DAE0FBF2F5B
:1001A000B11D5D968C91928D9F5F9F73928F90E0B1
:1001B00008958FEF9FEF0895FC01918D828D981720
:1001C00031F0828DE80FF11D858D90E008958FEF5D
:1001D0009FEF0895FC01918D228D892F90E0805C26
:1001E0009F4F821B91098F739927089586EA91E0AA
:1001F0000E94EA0021E0892B09F420E0822F089573
:1002000080E090E0892B29F00E94F60081110C9487
:1002100000000895FC01A48DA80FB92FB11DA35AA9
:10022000BF4F2C91848D90E001968F739927848F16
:10023000A689B7892C93A089B1898C918370806439
:100240008C93938D848D981306C00288F389E02DDA
:1002500080818F7D80830895EF92FF920F931F938B
:10026000CF93DF93EC0181E0888F9B8D8C8D981369
:100270001AC0E889F989808185FF15C09FB7F89475
:10028000EE89FF896083E889F989808183708064C1
:1002900080839FBF81E090E0DF91CF911F910F910C
:1002A000FF90EF900895F62E0B8D10E00F5F1F4F1B
:1002B0000F731127E02E8C8D8E110CC00FB607FC2A
:1002C000FACFE889F989808185FFF5CFCE010E94B8
:1002D0000A01F1CFEB8DEC0FFD2FF11DE35AFF4F1B
:1002E000F0829FB7F8940B8FEA89FB898081806246
:1002F000CFCFCF93DF93EC01888D8823B9F0AA8903
:10030000BB89E889F9898C9185FD03C0808186FDD0
:100310000DC00FB607FCF7CF8C9185FFF2CF80811F
:1003200085FFEDCFCE010E940A01E9CFDF91CF9189
:100330000895833081F028F4813099F08230A9F05B
:1003400008958730A9F08830C9F08430B1F48091E5
:1003500080008F7D03C0809180008F778093800024
:10036000089584B58F7784BD089584B58F7DFBCFC4
:100370008091B0008F778093B00008958091B00095
:100380008F7DF9CF1F93CF93DF93282F30E0F901B2
:10039000E255FF4F8491F901E656FF4FD491F901E0
:1003A000EA57FF4FC491CC23A9F0162F81110E9468
:1003B0009901EC2FF0E0EE0FFF1FEE58FF4FA591D3
:1003C000B4918FB7F894EC91111108C0D095DE2349
:1003D000DC938FBFDF91CF911F910895DE2BF8CF73
:1003E000CF93DF9390E0FC01E656FF4F24918A57AC
:1003F0009F4FFC0184918823D1F090E0880F991FD2
:10040000FC01E859FF4FA591B491FC01EE58FF4F54
:10041000C591D491623071F49FB7F8943C91822FCA
:10042000809583238C93E8812E2B28839FBFDF91B7
:10043000CF9108958FB7F894EC912E2B2C938FBF0A
:10044000F6CF3FB7F8948091A2019091A301A091BB
:10045000A401B091A50126B5A89B05C02F3F19F0B6
:100460000196A11DB11D3FBFBA2FA92F982F882734
:10047000BC01CD01620F711D811D911D42E0660F0F
:10048000771F881F991F4A95D1F708958F929F92E1
:10049000AF92BF92CF92DF92EF92FF924B015C013D
:1004A0000E9421026B017C010E9421026C197D09CE
:1004B0008E099F09683E734081059105A8F321E0EC
:1004C000821A9108A108B10888EEC80E83E0D81EF0
:1004D000E11CF11C81149104A104B10429F7FF90DF
:1004E000EF90DF90CF90BF90AF909F908F90089546
:1004F000089520915301260F3327331F21323105F0
:10050000ECF420917701FC0190E080E0243069F068
:1005100082E00895A09153012191AC014D5C5E4FA2
:10052000A40FB52FB11D2C930196861798F38091D7
:100530005301680F6093530180E0089581E00895AE
:1005400008958FEF9FEF08958FEF9FEF08958091AB
:100550002C0190E09195819591090895CF93DF93B7
:10056000CB01EA01642F0E947902CE01DF91CF9185
:100570000895CF93DF931F92CDB7DEB7698361E013
:10058000CE0101960E94790281E090E00F90DF9108
:10059000CF91089590E080E00895CF93DF93EC0130
:1005A00060E08E810E94C20161E08E810E94C201E2
:1005B00060E08E810E94C2018BE891E00197F1F723
:1005C000DF91CF910895CF92DF92EF92FF920F9338
:1005D0001F93CF93DF936C017C0187E0E80EF11C41
:1005E000D0E0C0E0062F10E0B8010C2E02C07595D7
:1005F00067950A94E2F76170F70181917F010E948B
:10060000C2012196C430D10579F7C601DF91CF919F
:100610001F910F91FF90EF90DF90CF900C94CD023F
:10062000CF92DF92EF92FF920F931F93CF93DF93BE
:10063000EC01F62E642F8C810E94C2018D818F3FC8
:1006400019F060E00E94C2010F2D10E08F8584FF39
:1006500025C06E0187E0C80ED11CF12CE12CB80139
:100660000E2C02C0759567950A94E2F76170F60149
:1006700081916F010E94C201FFEFEF1AFF0A88E02B
:10068000E816F10461F7CE01DF91CF911F910F9130
:10069000FF90EF90DF90CF900C94CD02B80184E0F2
:1006A000759567958A95E1F7CE010E94E3026F2D5B
:1006B000CE01DF91CF911F910F91FF90EF90DF90CE
:1006C000CF900C94E30240E0682F83E492E00C9416
:1006D000100381E00E9463038BE39FE10197F1F730
:1006E0000895CF93DF93823029F49091520298605D
:1006F00090935202809356021092570280E48093A6
:10070000580280E18093590280E580935A0261E0AB
:10071000809147020E94F001809148028F3F19F0BA
:1007200061E00E94F00161E0809149020E94F001C5
:10073000C3E4D2E09E01235432408091520284FDF2
:100740000BC084E090E021962817390744F461E05B
:100750008E810E94F001EECF88E090E0F4CF8BE331
:100760009DE00197F1F760E0809147020E94C2018D
:1007700060E0809149020E94C201809148028F3F4F
:1007800019F060E00E94C2018091520284FD34C0E1
:1007900063E083E492E00E94E302CBE4D6E4CE017E
:1007A0000197F1F763E083E492E00E94E30221976E
:1007B000F1F763E083E492E00E94E30283E592E0D4
:1007C0000197F1F762E083E492E00E94E3028091F6
:1007D000520280620E94630384E0809353028CE0A3
:1007E0000E9463030E94690382E08093540286E0C2
:1007F000DF91CF910C94630380620E9463038BE4CA
:1008000096E40197F1F78091520280620E9463039F
:1008100083E592E00197F1F78091520280620E9495
:100820006303D5CF41E00E94100381E090E008957A
:100830001F93CF93DF9385ED8093BC0080912F01B0
:1008400090913001A0913101B09132010796A11D24
:10085000B11D23E0B695A795979587952A95D1F771
:100860002091BC0024FD03C01092770152C040913A
:100870002F01509130016091310170913201452B6F
:10088000462B472B69F30097A105B10541F025E3FD
:100890002A95F1F700000197A109B109E1CF8091F4
:1008A0002E01C1E0C0932D01882399F1D091B800A9
:1008B0001091BA008091BC008A7B8093BC0060E0FC
:1008C00082E10E94C20160E083E10E94C2011092B5
:1008D0007701C09379011092780161E082E10E9472
:1008E000C20161E083E10E94C2018091B9008E7F64
:1008F0008093B9008091B9008D7F8093B90088E41E
:100900008093B80085E48093BC001093BA00D09324
:10091000B800DF91CF911F9108951F920F920FB6EB
:100920000F9211242F933F934F935F936F937F9375
:100930008F939F93AF93BF93EF93FF9386EA91E0DA
:100940000E940A01FF91EF91BF91AF919F918F910A
:100950007F916F915F914F913F912F910F900FBEBB
:100960000F901F9018951F920F920FB60F9211249F
:100970002F938F939F93EF93FF93E091B601F091A4
:10098000B7018081E091BC01F091BD0182FD1BC0E7
:1009900090818091BF018F5F8F732091C00182177A
:1009A00041F0E091BF01F0E0EA55FE4F958F809352
:1009B000BF01FF91EF919F918F912F910F900FBEEB
:1009C0000F901F9018958081F4CF1F920F920FB651
:1009D0000F9211242F933F938F939F93AF93BF93C5
:1009E00080919E0190919F01A091A001B091A101E1
:1009F00030919D0123E0230F2D3758F50196A11D5D
:100A0000B11D20939D0180939E0190939F01A0931F
:100A1000A001B093A1018091A2019091A301A091A6
:100A2000A401B091A5010196A11DB11D8093A20161
:100A30009093A301A093A401B093A501BF91AF919E
:100A40009F918F913F912F910F900FBE0F901F900C
:100A5000189526E8230F0296A11DB11DD2CF1F9233
:100A60000F920FB60F9211242F933F934F935F93E2
:100A70006F937F938F939F93AF93BF93EF93FF9366
:100A80008091B900887F803609F44AC0F0F5883239
:100A900009F4A5C018F5803109F499C0B8F4882389
:100AA00009F4F5C0883009F492C0FF91EF91BF912D
:100AB000AF919F918F917F916F915F914F913F91F6
:100AC0002F910F900FBE0F901F901895883109F449
:100AD00086C0803251F78093760114C0803409F4C7
:100AE0009BC040F48033B9F38833F9F680937601E4
:100AF00085ECAEC0803509F483C0883509F494C014
:100B0000883499F60E941804D0CF883909F48AC035
:100B100038F5883729F050F4883611F0803729F6F7
:100B200083E0809377011092750155C0883809F4ED
:100B300079C0803919F0803809F0B7CF80917501FC
:100B4000803208F06FC0E091750181E08E0F8093D4
:100B500075018091BB00F0E0EB5AFE4F80833BC0F3
:100B6000803B39F0D0F4803A09F477C0883A09F034
:100B70009CCF84E08093770110925401109253012E
:100B8000F0E0E0E009958091530181110FC081E010
:100B9000809353011092330109C0803C09F4A8CF1F
:100BA000883C09F4A5CF883B09F07FCFE091540140
:100BB00081E08E0F80935401F0E0ED5CFE4F808168
:100BC0008093BB00909154018091530129C0809182
:100BD0009C018093BB0085EC8093BC0066CF909114
:100BE0009B0180919A01981758F5E0919B0181E053
:100BF0008E0F80939B01F0E0E658FE4F8081E9CF95
:100C0000E0919B0181E08E0F80939B018091BB005E
:100C1000F0E0E658FE4F808390919B0180919A010D
:100C20009817C8F285E8D8CFE0919B0181E08E0F3C
:100C300080939B018091BB00F0E0E658FE4F8083DB
:100C40008091790181115ECF81E08093780184EAFF
:100C50008093BC001092770128CF85EC8093BC0074
:100C60001092770180917501803230F4E091750126
:100C7000F0E0EB5AFE4F10826091750170E085E55F
:100C800091E0F0E0E0E00995109275010ECF10922E
:100C9000760138CFE6EAF1E01382128288EE93E023
:100CA000A0E0B0E084839583A683B78384E091E0DD
:100CB0009183808385EC90E09587848784EC90E035
:100CC0009787868780EC90E0918B808B81EC90E019
:100CD000938B828B82EC90E0958B848B86EC90E0FA
:100CE000978B868B118E128E138E148EE3E4F2E0B6
:100CF0001382128286E191E0918380838CE0848369
:100D00008FEF85838BE086838AE0878389E0808705
:100D100088E0818787E08287138614861586168689
:100D2000178681E00C947103789484B5826084BD49
:100D300084B5816084BD85B5826085BD85B58160DF
:100D400085BD80916E00816080936E00109281005D
:100D50008091810082608093810080918100816018
:100D600080938100809180008160809380008091D9
:100D7000B10084608093B1008091B0008160809365
:100D8000B00080917A00846080937A0080917A002C
:100D9000826080937A0080917A00816080937A00EB
:100DA00080917A00806880937A001092C100E0916F
:100DB000B601F091B70182E08083E091B201F09139
:100DC000B3011082E091B401F091B5018FEC808302
:100DD0001092BE01E091BA01F091BB0186E08083E0
:100DE000E091B801F091B901808180618083E09148
:100DF000B801F091B901808188608083E091B801E9
:100E0000F091B901808180688083E091B801F09110
:100E1000B90180818F7D808362E08EE00E94F001C5
:100E200082E00E947103E1E0809156028111E0E0CE
:100E3000E195F0E0ED5BFD4F848980680E946303DB
:100E40004CE050E06EE171E083E492E00E948C009F
:100E500068EC70E080E090E00E9446020E94690326
:100E6000CCEBD0E008EA10E094E9E92E90E0F92E0E
:100E700020E0C22E20E0D22E6EE170E080E090E013
:100E80000E94460286EA91E00E94EA0018161906BE
:100E900054F486EA91E00E94C80041E0682F83E4A0
:100EA00092E00E941003FE018491F801A490F701E2
:100EB000B490B1100CC00E946903C114D104E1F2D6
:100EC0000E94F6008823C1F20E940000D5CF811154
:100ED0000E949901EB2DF0E0EE0FFF1FE458FF4F49
:100EE000A591B4918C91A82231F3E7CFEE0FFF1FAB
:100EF0000590F491E02D0994F894FFCF00000000D4
:100F00002C018C00B9007901EA00C800DC00000067
:100F1000000012048C00CA027802496E696369619C
:080F20006E646F2E2E2E0000FE
:107E0000112484B714BE81FFF0D085E080938100F7
:107E100082E08093C00088E18093C10086E0809377
:107E2000C20080E18093C4008EE0C9D0259A86E02C
:107E300020E33CEF91E0309385002093840096BBD3
:107E4000B09BFECF1D9AA8958150A9F7CC24DD24C4
:107E500088248394B5E0AB2EA1E19A2EF3E0BF2EE7
:107E6000A2D0813461F49FD0082FAFD0023811F036
:107E7000013811F484E001C083E08DD089C08234E0
:107E800011F484E103C0853419F485E0A6D080C0E4
:107E9000853579F488D0E82EFF2485D0082F10E0AE
:107EA000102F00270E291F29000F111F8ED06801E7
:107EB0006FC0863521F484E090D080E0DECF843638
:107EC00009F040C070D06FD0082F6DD080E0C81688
:107ED00080E7D80618F4F601B7BEE895C0E0D1E017
:107EE00062D089930C17E1F7F0E0CF16F0E7DF06D8
:107EF00018F0F601B7BEE89568D007B600FCFDCFD4
:107F0000A601A0E0B1E02C9130E011968C91119780
:107F100090E0982F8827822B932B1296FA010C0160
:107F200087BEE89511244E5F5F4FF1E0A038BF0790
:107F300051F7F601A7BEE89507B600FCFDCF97BE46
:107F4000E89526C08437B1F42ED02DD0F82E2BD052
:107F50003CD0F601EF2C8F010F5F1F4F84911BD097
:107F6000EA94F801C1F70894C11CD11CFA94CF0C13
:107F7000D11C0EC0853739F428D08EE10CD085E9AC
:107F80000AD08FE07ACF813511F488E018D01DD067
:107F900080E101D065CF982F8091C00085FFFCCF94
:107FA0009093C60008958091C00087FFFCCF809118
:107FB000C00084FD01C0A8958091C6000895E0E648
:107FC000F0E098E1908380830895EDDF803219F02E
:107FD00088E0F5DFFFCF84E1DECF1F93182FE3DFCA
:107FE0001150E9F7F2DF1F91089580E0E8DFEE27F6
:047FF000FF270994CA
:027FFE00040479
:00000001FF
