:100000000C9462000C948A000C948A000C948A0070
:100010000C948A000C948A000C948A000C948A0038
:100020000C948A000C948A000C948A000C948A0028
:100030000C948A000C948A000C948A000C948A0018
:100040000C947A040C948A000C9448040C942204B6
:100050000C948A000C948A000C948A000C948A00F8
:100060000C94C4040C948A000000000024002700B3
:100070002A0000000000250028002B0000000000DE
:1000800023002600290004040404040404040202DA
:100090000202020203030303030301020408102007
:1000A0004080010204081020010204081020000012
:1000B0000008000201000003040700000000000027
:1000C0000000DF0511241FBECFEFD8E0DEBFCDBF9B
:1000D00011E0A0E0B1E0E6E2FEE002C005900D9282
:1000E000AC32B107D9F722E0ACE2B1E001C01D9219
:1000F000A535B207E1F710E0C2E6D0E004C02197D1
:10010000FE010E940B07C136D107C9F70E942906DC
:100110000C9411070C940000AF92BF92CF92DF9223
:10012000EF92FF920F931F93CF93DF936C017B01AC
:100130008B01040F151FEB015E01AE18BF08C0173D
:10014000D10759F06991D601ED91FC910190F081B0
:10015000E02DC6010995892B79F7C501DF91CF9173
:100160001F910F91FF90EF90DF90CF90BF90AF90D5
:100170000895FC01538D448D252F30E0842F90E0AD
:10018000821B930B541710F0CF9608950197089592
:10019000FC01918D828D981761F0A28DAE0FBF2F5B
:1001A000B11D5D968C91928D9F5F9F73928F90E0B1
:1001B00008958FEF9FEF0895FC01918D828D981720
:1001C00031F0828DE80FF11D858D90E008958FEF5D
:1001D0009FEF0895FC01918D228D892F90E0805C26
:1001E0009F4F821B91098F739927089580EA91E0B0
:1001F0000E94EA0021E0892B09F420E0822F089573
:1002000080E090E0892B29F00E94F60081110C9487
:1002100000000895FC01A48DA80FB92FB11DA35AA9
:10022000BF4F2C91848D90E001968F739927848F16
:10023000A689B7892C93A089B1898C918370806439
:100240008C93938D848D981306C00288F389E02DDA
:1002500080818F7D80830895EF92FF920F931F938B
:10026000CF93DF93EC0181E0888F9B8D8C8D981369
:100270001AC0E889F989808185FF15C09FB7F89475
:10028000EE89FF896083E889F989808183708064C1
:1002900080839FBF81E090E0DF91CF911F910F910C
:1002A000FF90EF900895F62E0B8D10E00F5F1F4F1B
:1002B0000F731127E02E8C8D8E110CC00FB607FC2A
:1002C000FACFE889F989808185FFF5CFCE010E94B8
:1002D0000A01F1CFEB8DEC0FFD2FF11DE35AFF4F1B
:1002E000F0829FB7F8940B8FEA89FB898081806246
:1002F000CFCFCF93DF93EC01888D8823B9F0AA8903
:10030000BB89E889F9898C9185FD03C0808186FDD0
:100310000DC00FB607FCF7CF8C9185FFF2CF80811F
:1003200085FFEDCFCE010E940A01E9CFDF91CF9189
:100330000895833081F028F4813099F08230A9F05B
:1003400008958730A9F08830C9F08430B1F48091E5
:1003500080008F7D03C0809180008F778093800024
:10036000089584B58F7784BD089584B58F7DFBCFC4
:100370008091B0008F778093B00008958091B00095
:100380008F7DF9CF1F93CF93DF93282F30E0F901B2
:10039000E255FF4F8491F901E656FF4FD491F901E0
:1003A000EA57FF4FC491CC23A9F0162F81110E9468
:1003B0009901EC2FF0E0EE0FFF1FEE58FF4FA591D3
:1003C000B4918FB7F894EC91111108C0D095DE2349
:1003D000DC938FBFDF91CF911F910895DE2BF8CF73
:1003E000CF93DF9390E0FC01E656FF4F24918A57AC
:1003F0009F4FFC0184918823D1F090E0880F991FD2
:10040000FC01E859FF4FA591B491FC01EE58FF4F54
:10041000C591D491623071F49FB7F8943C91822FCA
:10042000809583238C93E8812E2B28839FBFDF91B7
:10043000CF9108958FB7F894EC912E2B2C938FBF0A
:10044000F6CF3FB7F89480919C0190919D01A091C7
:100450009E01B0919F0126B5A89B05C02F3F19F0C2
:100460000196A11DB11D3FBFBA2FA92F982F882734
:10047000BC01CD01620F711D811D911D42E0660F0F
:10048000771F881F991F4A95D1F708958F929F92E1
:10049000AF92BF92CF92DF92EF92FF924B015C013D
:1004A0000E9421026B017C010E9421026C197D09CE
:1004B0008E099F09683E734081059105A8F321E0EC
:1004C000821A9108A108B10888EEC80E83E0D81EF0
:1004D000E11CF11C81149104A104B10429F7FF90DF
:1004E000EF90DF90CF90BF90AF909F908F90089546
:1004F000089585ED8093BC008091BC0084FDFCCF05
:1005000010927101089520914D01260F3327331F5A
:1005100021323105ECF420917101FC0190E080E082
:10052000243069F082E00895A0914D012191AC0141
:10053000435D5E4FA40FB52FB11D2C930196861716
:1005400098F380914D01680F60934D0180E008950C
:1005500081E0089508958FEF9FEF08958FEF9FEF4B
:10056000089580912C0190E09195819591090895CD
:10057000CF93DF93CB01EA01642F0E948302CE0167
:10058000DF91CF910895CF93DF931F92CDB7DEB760
:10059000698361E0CE0101960E94830281E090E0D0
:1005A0000F90DF91CF91089590E080E00895CF9370
:1005B000DF93EC0160E08E810E94C20161E08E81D8
:1005C0000E94C20160E08E810E94C2018BE891E02E
:1005D0000197F1F7DF91CF910895CF92DF92EF92DB
:1005E000FF920F931F93CF93DF936C017C0187E001
:1005F000E80EF11CD0E0C0E0062F10E0B8010C2E90
:1006000002C0759567950A94E2F76170F7018191D0
:100610007F010E94C2012196C430D10579F7C6013D
:10062000DF91CF911F910F91FF90EF90DF90CF90CE
:100630000C94D702CF92DF92EF92FF920F931F9309
:10064000CF93DF93EC01F62E642F8C810E94C201C0
:100650008D818F3F19F060E00E94C2010F2D10E0E4
:100660008F8584FF25C06E0187E0C80ED11CF12C58
:10067000E12CB8010E2C02C0759567950A94E2F73B
:100680006170F60181916F010E94C201FFEFEF1AC4
:10069000FF0A88E0E816F10461F7CE01DF91CF91FF
:1006A0001F910F91FF90EF90DF90CF900C94D702A5
:1006B000B80184E0759567958A95E1F7CE010E94AF
:1006C000ED026F2DCE01DF91CF911F910F91FF9021
:1006D000EF90DF90CF900C94ED0240E0682F8DE317
:1006E00092E00C941A0381E00E946D038BE39FE17A
:1006F0000197F1F70895CF93DF93823029F4909119
:100700004C02986090934C028093500210925102D8
:1007100080E48093520280E18093530280E58093CD
:10072000540261E0809141020E94F00180914202F6
:100730008F3F19F061E00E94F00161E08091430277
:100740000E94F001CDE3D2E09E012D533240809112
:100750004C0284FD0BC084E090E0219628173907F5
:1007600044F461E08E810E94F001EECF88E090E0D9
:10077000F4CF8BE39DE00197F1F760E080914102B7
:100780000E94C20160E0809143020E94C2018091F8
:1007900042028F3F19F060E00E94C20180914C023A
:1007A00084FD34C063E08DE392E00E94ED02CBE46F
:1007B000D6E4CE010197F1F763E08DE392E00E9469
:1007C000ED022197F1F763E08DE392E00E94ED02E4
:1007D00083E592E00197F1F762E08DE392E00E94F9
:1007E000ED0280914C0280620E946D0384E0809350
:1007F0004D028CE00E946D030E94730382E080939F
:100800004E0286E0DF91CF910C946D0380620E94CE
:100810006D038BE496E40197F1F780914C028062BE
:100820000E946D0383E592E00197F1F780914C02FD
:1008300080620E946D03D5CF41E00E941A0381E0DF
:1008400090E008951F920F920FB60F9211242F93EC
:100850003F934F935F936F937F938F939F93AF9348
:10086000BF93EF93FF9380EA91E00E940A01FF910A
:10087000EF91BF91AF919F918F917F916F915F9118
:100880004F913F912F910F900FBE0F901F90189591
:100890001F920F920FB60F9211242F938F939F9355
:1008A000EF93FF93E091B001F091B1018081E0916D
:1008B000B601F091B70182FD1BC090818091B90112
:1008C0008F5F8F732091BA01821741F0E091B901D7
:1008D000F0E0E056FE4F958F8093B901FF91EF91C4
:1008E0009F918F912F910F900FBE0F901F90189591
:1008F0008081F4CF1F920F920FB60F9211242F9385
:100900003F938F939F93AF93BF9380919801909162
:100910009901A0919A01B0919B013091970123E038
:10092000230F2D3758F50196A11DB11D2093970176
:100930008093980190939901A0939A01B0939B01A1
:1009400080919C0190919D01A0919E01B0919F0189
:100950000196A11DB11D80939C0190939D01A093D0
:100960009E01B0939F01BF91AF919F918F913F9155
:100970002F910F900FBE0F901F90189526E8230F10
:100980000296A11DB11DD2CF1F920F920FB60F92EA
:1009900011242F933F934F935F936F937F938F9384
:1009A0009F93AF93BF93EF93FF938091B900887F9C
:1009B000803609F44AC0F0F5883209F4A5C018F56C
:1009C000803109F499C0B8F4882309F4F5C088305F
:1009D00009F492C0FF91EF91BF91AF919F918F91D8
:1009E0007F916F915F914F913F912F910F900FBE2B
:1009F0000F901F901895883109F486C0803251F706
:100A00008093700114C0803409F49BC040F480339B
:100A1000B9F38833F9F68093700185ECAEC0803568
:100A200009F483C0883509F494C0883499F60E948B
:100A30007902D0CF883909F48AC038F5883729F08F
:100A400050F4883611F0803729F683E080937101E5
:100A500010926F0155C0883809F479C0803919F0B7
:100A6000803809F0B7CF80916F01803208F06FC0F5
:100A7000E0916F0181E08E0F80936F018091BB0048
:100A8000F0E0E15BFE4F80833BC0803B39F0D0F467
:100A9000803A09F477C0883A09F09CCF84E08093CB
:100AA000710110924E0110924D01F0E0E0E00995C5
:100AB00080914D0181110FC081E080934D01109212
:100AC0002D0109C0803C09F4A8CF883C09F4A5CFCA
:100AD000883B09F07FCFE0914E0181E08E0F80933B
:100AE0004E01F0E0E35DFE4F80818093BB0090916A
:100AF0004E0180914D0129C0809196018093BB00E9
:100B000085EC8093BC0066CF909195018091940113
:100B1000981758F5E091950181E08E0F809395012B
:100B2000F0E0EC58FE4F8081E9CFE091950181E043
:100B30008E0F809395018091BB00F0E0EC58FE4F42
:100B4000808390919501809194019817C8F285E86F
:100B5000D8CFE091950181E08E0F8093950180912F
:100B6000BB00F0E0EC58FE4F80838091730181114F
:100B70005ECF81E08093720184EA8093BC00109282
:100B8000710128CF85EC8093BC0010927101809197
:100B90006F01803230F4E0916F01F0E0E15BFE4FD5
:100BA000108260916F0170E08FE491E0F0E0E0E08E
:100BB000099510926F010ECF1092700138CFE0EAC4
:100BC000F1E01382128288EE93E0A0E0B0E084832B
:100BD0009583A683B78384E091E09183808385EC3D
:100BE00090E09587848784EC90E09787868780ECF7
:100BF00090E0918B808B81EC90E0938B828B82ECE8
:100C000090E0958B848B86EC90E0978B868B118E91
:100C1000128E138E148EEDE3F2E01382128286E1BF
:100C200091E0918380838CE084838FEF85838BE0D8
:100C300086838AE0878389E0808788E0818787E0F0
:100C400082871386148615861686178681E00C9493
:100C50007B03789484B5826084BD84B5816084BD53
:100C600085B5826085BD85B5816085BD80916E004A
:100C7000816080936E00109281008091810082607B
:100C800080938100809181008160809381008091B8
:100C900080008160809380008091B10084608093A7
:100CA000B1008091B00081608093B00080917A00A3
:100CB000846080937A0080917A00826080937A00C9
:100CC00080917A00816080937A0080917A008068B8
:100CD00080937A001092C100E091B001F091B101CF
:100CE00082E08083E091AC01F091AD011082E0914F
:100CF000AE01F091AF018FEC80831092B801E091CA
:100D0000B401F091B50186E08083E091B201F091E9
:100D1000B301808180618083E091B201F091B301E1
:100D2000808188608083E091B201F091B30180817D
:100D300080688083E091B201F091B30180818F7D62
:100D4000808362E08EE00E94F00182E00E947B03DB
:100D5000E1E0809150028111E0E0E195F0E0E35C98
:100D6000FD4F848980680E946D034CE050E06EE185
:100D700071E08DE392E00E948C0068EC70E080E00E
:100D800090E00E9446020E947303CCEBD0E008EA98
:100D900010E094E9E92E90E0F92E20E0C22E20E048
:100DA000D22E6EE170E080E090E00E94460280EA80
:100DB00091E00E94EA001816190654F480EA91E0C6
:100DC0000E94C80041E0682F8DE392E00E941A0360
:100DD000FE018491F801A490F701B490B1100CC009
:100DE0000E947303C114D104E1F20E94F60088232B
:100DF000C1F20E940000D5CF81110E949901EB2D14
:100E0000F0E0EE0FFF1FE458FF4FA591B4918C91D5
:100E1000A82231F3E7CFEE0FFF1F0590F491E02DEC
:060E20000994F894FFCFD5
:100E2600000000002C018C00B9007901EA00C8001E
:100E3600DC00000000001C048C00D4027802496E1D
:0C0E4600696369616E646F2E2E2E00003F
:00000001FF
